:060000000A128A1100291A
:10000800F000030EF1000B1912200C1819208C189F
:100018002220710E8300F00E700E09000313831264
:10002800FC3081000B117E21080003138312C230BB
:100038008F00F7308E000C10A20A08008C10850A79
:020048000800AE
:10020000442112211921262136215521031383125D
:10021000622169212108A000A00E2208A0076F21F9
:1002200077210829031383160F140F138F160F1647
:100230000800031383168112811101158110011426
:1002400003138312FC3081000B1108000313831287
:10025000901090119016101610131014031383129F
:10026000C2308F00F7308E000C1008000313831685
:10027000F430920003138312921412141217921680
:1002800012169215121508000317831688018901AA
:10029000031383168701FC308800FE3085000313AA
:1002A00083128701880185010800031383160C144B
:1002B0008C14031383120B178B178B160B110C1056
:1002C0008C10080022080A3C031D0800A10AA201A4
:1002D00008002108063C031D0800A10108000F309A
:1002E0002005A400F0302005A500A50E0800240874
:1002F0000022A60025080022A70008000810881088
:100300002318872926088700881423140800270843
:08031000870008142310080007
:100400008A018A140F3982073F3406345B344F3433
:1004100066346D347D3407347F346F3477347C3404
:0804200039345E347934713483
:04400E00C430FF3F7C
:00000001FF
